{
  "transactions": [
    {
      "hash": "0xe1732545efc0fd16f6e041af62cde35eb5dcff0303bd18cfc759bb1bbcf45407",
      "transactionType": "CALL",
      "contractName": null,
      "contractAddress": "0xa5dfc0fee856d42cd67c97ef1fa08497547f4419",
      "function": "approve(address,uint256)",
      "arguments": [
        "0x9140a78c1A137c7fF1c151EC8231272aF78a99A4",
        "115792089237316195423570985008687907853269984665640564039457584007913129639935"
      ],
      "transaction": {
        "from": "0x7a40fa7b42c04f2d9763475b36afa5e0140c37bf",
        "to": "0xa5dfc0fee856d42cd67c97ef1fa08497547f4419",
        "gas": "0x9382",
        "value": "0x0",
        "input": "0x095ea7b30000000000000000000000009140a78c1a137c7ff1c151ec8231272af78a99a4ffffffffffffffffffffffffffffffffffffffffffffffffffffffffffffffff",
        "nonce": "0x1a",
        "chainId": "0x515"
      },
      "additionalContracts": [],
      "isFixedGasLimit": false
    },
    {
      "hash": "0x2a7e590bef2cb9b4c3cb0bfd99e2ae0df4d1d981aab5d6b3c72326210b98177b",
      "transactionType": "CALL",
      "contractName": null,
      "contractAddress": "0x9140a78c1a137c7ff1c151ec8231272af78a99a4",
      "function": "swap((address,address,uint24,int24,address),(bool,int256,uint160),(bool,bool),bytes)",
      "arguments": [
        "(0x0000000000000000000000000000000000000000, 0xa5dfC0feE856D42Cd67c97eF1fa08497547f4419, 3000, 60, 0x1FCefdf5Dd7d5B6e71b09DDBc738Be078A11c040)",
        "(true, 100000000000000000000000, 4295128740)",
        "(false, false)",
        "0x3a29"
      ],
      "transaction": {
        "from": "0x7a40fa7b42c04f2d9763475b36afa5e0140c37bf",
        "to": "0x9140a78c1a137c7ff1c151ec8231272af78a99a4",
        "gas": "0x991cd",
        "value": "0x38d7ea4c68000",
        "input": "0x2229d0b40000000000000000000000000000000000000000000000000000000000000000000000000000000000000000a5dfc0fee856d42cd67c97ef1fa08497547f44190000000000000000000000000000000000000000000000000000000000000bb8000000000000000000000000000000000000000000000000000000000000003c0000000000000000000000001fcefdf5dd7d5b6e71b09ddbc738be078a11c040000000000000000000000000000000000000000000000000000000000000000100000000000000000000000000000000000000000000152d02c7e14af680000000000000000000000000000000000000000000000000000000000001000276a400000000000000000000000000000000000000000000000000000000000000000000000000000000000000000000000000000000000000000000000000000000000000000000000000000000000000000000000000000000000000000000016000000000000000000000000000000000000000000000000000000000000000023a29000000000000000000000000000000000000000000000000000000000000",
        "nonce": "0x1b",
        "chainId": "0x515"
      },
      "additionalContracts": [],
      "isFixedGasLimit": false
    }
  ],
  "receipts": [
    {
      "status": "0x1",
      "cumulativeGasUsed": "0x1163e",
      "logs": [
        {
          "address": "0xa5dfc0fee856d42cd67c97ef1fa08497547f4419",
          "topics": [
            "0x8c5be1e5ebec7d5bd14f71427d1e84f3dd0314c0f7b2291e5b200ac8c7c3b925",
            "0x0000000000000000000000007a40fa7b42c04f2d9763475b36afa5e0140c37bf",
            "0x0000000000000000000000009140a78c1a137c7ff1c151ec8231272af78a99a4"
          ],
          "data": "0xffffffffffffffffffffffffffffffffffffffffffffffffffffffffffffffff",
          "blockHash": "0xacbb25d43fe27a469b2396aa32717cb3e8dcc57e8f96e1c56613adc6ff6f74e8",
          "blockNumber": "0xb87be3",
          "transactionHash": "0xe1732545efc0fd16f6e041af62cde35eb5dcff0303bd18cfc759bb1bbcf45407",
          "transactionIndex": "0x1",
          "logIndex": "0x0",
          "removed": false
        }
      ],
      "logsBloom": "0x00000000000000000000000000000000000000000000000000000000080000001000000000000000000000000000000000000000000000000020000000200000000000000000000000000000000000000000001000000000004000000000000000000000000000000000000000000000000000000000000000000000000000000000000000000001000000000000000000000000000000000000000000001000020000000000000000010000000000000000000000000000000000000000000000000000000000000000000000000000000000000000000000000040000000000010000000000000000000000000000000000000000000000000000000000000",
      "type": "0x2",
      "transactionHash": "0xe1732545efc0fd16f6e041af62cde35eb5dcff0303bd18cfc759bb1bbcf45407",
      "transactionIndex": "0x1",
      "blockHash": "0xacbb25d43fe27a469b2396aa32717cb3e8dcc57e8f96e1c56613adc6ff6f74e8",
      "blockNumber": "0xb87be3",
      "gasUsed": "0x6acc",
      "effectiveGasPrice": "0xf433e",
      "from": "0x7a40fa7b42c04f2d9763475b36afa5e0140c37bf",
      "to": "0xa5dfc0fee856d42cd67c97ef1fa08497547f4419",
      "contractAddress": null,
      "l1BaseFeeScalar": "0x7d0",
      "l1BlobBaseFee": "0x1",
      "l1BlobBaseFeeScalar": "0xdbba0",
      "l1Fee": "0x1c2210c230",
      "l1GasPrice": "0x8caa53c93",
      "l1GasUsed": "0x640"
    },
    {
      "status": "0x1",
      "cumulativeGasUsed": "0x803dc",
      "logs": [
        {
          "address": "0x00b036b58a818b1bc34d502d3fe730db729e62ac",
          "topics": [
            "0x40e9cecb9f5f1f1c5b9c97dec2917b7ee92e57ba5563708daca94dd84ad7112f",
            "0x86b1b01b100baf193976f07e8e9a41cf34e81a83b0e6b2daff73b8a23165cd13",
            "0x0000000000000000000000009140a78c1a137c7ff1c151ec8231272af78a99a4"
          ],
          "data": "0x0000000000000000000000000000000000000000000000000000000000000000000000000000000000000000000000000000000000000000000000000000000000000000000000000000000000000000000000000000000000000001000276a40000000000000000000000000000000000000000000000000000000000000000fffffffffffffffffffffffffffffffffffffffffffffffffffffffffff276180000000000000000000000000000000000000000000000000000000000000bb8",
          "blockHash": "0xacbb25d43fe27a469b2396aa32717cb3e8dcc57e8f96e1c56613adc6ff6f74e8",
          "blockNumber": "0xb87be3",
          "transactionHash": "0x2a7e590bef2cb9b4c3cb0bfd99e2ae0df4d1d981aab5d6b3c72326210b98177b",
          "transactionIndex": "0x2",
          "logIndex": "0x1",
          "removed": false
        },
        {
          "address": "0x1fcefdf5dd7d5b6e71b09ddbc738be078a11c040",
          "topics": [
            "0x20402db41a2f878968c7a90dc304117fe6c9cdcd4fed57d171672597e1bf6a85",
            "0x86b1b01b100baf193976f07e8e9a41cf34e81a83b0e6b2daff73b8a23165cd13",
            "0x0000000000000000000000009140a78c1a137c7ff1c151ec8231272af78a99a4"
          ],
          "data": "0x0000000000000000000000000000000000000000000000000000000000000000000000000000000000000000000000000000000000000000000000000000000000000000000000000000000000000000000000000000000000000001000276a4000000000000000000000000000000000000000000000000000000000000008000000000000000000000000000000000000000000000000000000000000000023a29000000000000000000000000000000000000000000000000000000000000",
          "blockHash": "0xacbb25d43fe27a469b2396aa32717cb3e8dcc57e8f96e1c56613adc6ff6f74e8",
          "blockNumber": "0xb87be3",
          "transactionHash": "0x2a7e590bef2cb9b4c3cb0bfd99e2ae0df4d1d981aab5d6b3c72326210b98177b",
          "transactionIndex": "0x2",
          "logIndex": "0x2",
          "removed": false
        }
      ],
      "logsBloom": "0x00000000000000000000000000000000000000000400000000000000080000200000000000000000000000000000000000000000040000000000000000100000000000000000000000000000000000000000000000000020004000000000000000000000000000200000000000000000000000080000000000000000000000000000000000004000000000000008000000000000000000000000000000000000001000000000000000010000000000000000000000000000000000000000000000000000000000000000000000000000000000000000000000000000000000008000000000000000004000000000000000000000000002000000000000002010",
      "type": "0x2",
      "transactionHash": "0x2a7e590bef2cb9b4c3cb0bfd99e2ae0df4d1d981aab5d6b3c72326210b98177b",
      "transactionIndex": "0x2",
      "blockHash": "0xacbb25d43fe27a469b2396aa32717cb3e8dcc57e8f96e1c56613adc6ff6f74e8",
      "blockNumber": "0xb87be3",
      "gasUsed": "0x6ed9e",
      "effectiveGasPrice": "0xf433e",
      "from": "0x7a40fa7b42c04f2d9763475b36afa5e0140c37bf",
      "to": "0x9140a78c1a137c7ff1c151ec8231272af78a99a4",
      "contractAddress": null,
      "l1BaseFeeScalar": "0x7d0",
      "l1BlobBaseFee": "0x1",
      "l1BlobBaseFeeScalar": "0xdbba0",
      "l1Fee": "0x2cbc11b149",
      "l1GasPrice": "0x8caa53c93",
      "l1GasUsed": "0x9f0"
    }
  ],
  "libraries": [],
  "pending": [],
  "returns": {},
  "timestamp": 1738942768,
  "chain": 1301,
  "commit": "0b1dbf6"
}