{
  "transactions": [
    {
      "hash": "0xb7722b62de1284bb2a91a1a0ad930db9dab41f62fa511794d5ac0af46226e682",
      "transactionType": "CALL",
      "contractName": null,
      "contractAddress": "0xa5dfc0fee856d42cd67c97ef1fa08497547f4419",
      "function": "approve(address,uint256)",
      "arguments": [
        "0x9140a78c1A137c7fF1c151EC8231272aF78a99A4",
        "115792089237316195423570985008687907853269984665640564039457584007913129639935"
      ],
      "transaction": {
        "from": "0x7a40fa7b42c04f2d9763475b36afa5e0140c37bf",
        "to": "0xa5dfc0fee856d42cd67c97ef1fa08497547f4419",
        "gas": "0xfee1",
        "value": "0x0",
        "input": "0x095ea7b30000000000000000000000009140a78c1a137c7ff1c151ec8231272af78a99a4ffffffffffffffffffffffffffffffffffffffffffffffffffffffffffffffff",
        "nonce": "0x15",
        "chainId": "0x515"
      },
      "additionalContracts": [],
      "isFixedGasLimit": false
    },
    {
      "hash": "0x4c0e920d65d13dc1cbb05a6140ce1c2b28a2859a97bde198d9775a05b24914bd",
      "transactionType": "CALL",
      "contractName": null,
      "contractAddress": "0x9140a78c1a137c7ff1c151ec8231272af78a99a4",
      "function": "swap((address,address,uint24,int24,address),(bool,int256,uint160),(bool,bool),bytes)",
      "arguments": [
        "(0x0000000000000000000000000000000000000000, 0xa5dfC0feE856D42Cd67c97eF1fa08497547f4419, 3000, 60, 0x1FCefdf5Dd7d5B6e71b09DDBc738Be078A11c040)",
        "(true, 1000000000000000, 4295128740)",
        "(false, false)",
        "0x48656c6c6f576f726c64"
      ],
      "transaction": {
        "from": "0x7a40fa7b42c04f2d9763475b36afa5e0140c37bf",
        "to": "0x9140a78c1a137c7ff1c151ec8231272af78a99a4",
        "gas": "0x2d329",
        "value": "0x38d7ea4c68000",
        "input": "0x2229d0b40000000000000000000000000000000000000000000000000000000000000000000000000000000000000000a5dfc0fee856d42cd67c97ef1fa08497547f44190000000000000000000000000000000000000000000000000000000000000bb8000000000000000000000000000000000000000000000000000000000000003c0000000000000000000000001fcefdf5dd7d5b6e71b09ddbc738be078a11c040000000000000000000000000000000000000000000000000000000000000000100000000000000000000000000000000000000000000000000038d7ea4c6800000000000000000000000000000000000000000000000000000000001000276a4000000000000000000000000000000000000000000000000000000000000000000000000000000000000000000000000000000000000000000000000000000000000000000000000000000000000000000000000000000000000000000000160000000000000000000000000000000000000000000000000000000000000000a48656c6c6f576f726c6400000000000000000000000000000000000000000000",
        "nonce": "0x16",
        "chainId": "0x515"
      },
      "additionalContracts": [],
      "isFixedGasLimit": false
    }
  ],
  "receipts": [
    {
      "status": "0x1",
      "cumulativeGasUsed": "0x222ae",
      "logs": [
        {
          "address": "0xa5dfc0fee856d42cd67c97ef1fa08497547f4419",
          "topics": [
            "0x8c5be1e5ebec7d5bd14f71427d1e84f3dd0314c0f7b2291e5b200ac8c7c3b925",
            "0x0000000000000000000000007a40fa7b42c04f2d9763475b36afa5e0140c37bf",
            "0x0000000000000000000000009140a78c1a137c7ff1c151ec8231272af78a99a4"
          ],
          "data": "0xffffffffffffffffffffffffffffffffffffffffffffffffffffffffffffffff",
          "blockHash": "0xa5029681c74a009d9e99117a0621d83866e36f01764966d02d41c5413c7b9a80",
          "blockNumber": "0xb877f6",
          "transactionHash": "0xb7722b62de1284bb2a91a1a0ad930db9dab41f62fa511794d5ac0af46226e682",
          "transactionIndex": "0x3",
          "logIndex": "0x1",
          "removed": false
        }
      ],
      "logsBloom": "0x00000000000000000000000000000000000000000000000000000000080000001000000000000000000000000000000000000000000000000020000000200000000000000000000000000000000000000000001000000000004000000000000000000000000000000000000000000000000000000000000000000000000000000000000000000001000000000000000000000000000000000000000000001000020000000000000000010000000000000000000000000000000000000000000000000000000000000000000000000000000000000000000000000040000000000010000000000000000000000000000000000000000000000000000000000000",
      "type": "0x2",
      "transactionHash": "0xb7722b62de1284bb2a91a1a0ad930db9dab41f62fa511794d5ac0af46226e682",
      "transactionIndex": "0x3",
      "blockHash": "0xa5029681c74a009d9e99117a0621d83866e36f01764966d02d41c5413c7b9a80",
      "blockNumber": "0xb877f6",
      "gasUsed": "0xb888",
      "effectiveGasPrice": "0xf433e",
      "from": "0x7a40fa7b42c04f2d9763475b36afa5e0140c37bf",
      "to": "0xa5dfc0fee856d42cd67c97ef1fa08497547f4419",
      "contractAddress": null,
      "l1BaseFeeScalar": "0x7d0",
      "l1BlobBaseFee": "0x1",
      "l1BlobBaseFeeScalar": "0xdbba0",
      "l1Fee": "0x1c6616300d",
      "l1GasPrice": "0x8dfe6eee8",
      "l1GasUsed": "0x640"
    },
    {
      "status": "0x1",
      "cumulativeGasUsed": "0x42e3d",
      "logs": [
        {
          "address": "0x00b036b58a818b1bc34d502d3fe730db729e62ac",
          "topics": [
            "0x40e9cecb9f5f1f1c5b9c97dec2917b7ee92e57ba5563708daca94dd84ad7112f",
            "0x86b1b01b100baf193976f07e8e9a41cf34e81a83b0e6b2daff73b8a23165cd13",
            "0x0000000000000000000000009140a78c1a137c7ff1c151ec8231272af78a99a4"
          ],
          "data": "0xfffffffffffffffffffffffffffffffffffffffffffffffffffffffffff0b1fc00000000000000000000000000000000000000000000000000038d7ea4c680000000000000000000000000000000000000007b86bec8afb549aa8596e36b79480000000000000000000000000000000000000000000006b245bf9c2c8dce6bc2000000000000000000000000000000000000000000000000000000000003298a0000000000000000000000000000000000000000000000000000000000000bb8",
          "blockHash": "0xa5029681c74a009d9e99117a0621d83866e36f01764966d02d41c5413c7b9a80",
          "blockNumber": "0xb877f6",
          "transactionHash": "0x4c0e920d65d13dc1cbb05a6140ce1c2b28a2859a97bde198d9775a05b24914bd",
          "transactionIndex": "0x4",
          "logIndex": "0x2",
          "removed": false
        },
        {
          "address": "0x1fcefdf5dd7d5b6e71b09ddbc738be078a11c040",
          "topics": [
            "0x20402db41a2f878968c7a90dc304117fe6c9cdcd4fed57d171672597e1bf6a85",
            "0x86b1b01b100baf193976f07e8e9a41cf34e81a83b0e6b2daff73b8a23165cd13",
            "0x0000000000000000000000009140a78c1a137c7ff1c151ec8231272af78a99a4"
          ],
          "data": "0xfffffffffffffffffffffffffffffffffffffffffffffffffffffffffff0b1fc00000000000000000000000000000000000000000000000000038d7ea4c6800000000000000000000000000000000000000000000000000000000001000276a40000000000000000000000000000000000000000000000000000000000000080000000000000000000000000000000000000000000000000000000000000000a48656c6c6f576f726c6400000000000000000000000000000000000000000000",
          "blockHash": "0xa5029681c74a009d9e99117a0621d83866e36f01764966d02d41c5413c7b9a80",
          "blockNumber": "0xb877f6",
          "transactionHash": "0x4c0e920d65d13dc1cbb05a6140ce1c2b28a2859a97bde198d9775a05b24914bd",
          "transactionIndex": "0x4",
          "logIndex": "0x3",
          "removed": false
        },
        {
          "address": "0xa5dfc0fee856d42cd67c97ef1fa08497547f4419",
          "topics": [
            "0xddf252ad1be2c89b69c2b068fc378daa952ba7f163c4a11628f55a4df523b3ef",
            "0x00000000000000000000000000b036b58a818b1bc34d502d3fe730db729e62ac",
            "0x0000000000000000000000007a40fa7b42c04f2d9763475b36afa5e0140c37bf"
          ],
          "data": "0x00000000000000000000000000000000000000000000000000038d7ea4c68000",
          "blockHash": "0xa5029681c74a009d9e99117a0621d83866e36f01764966d02d41c5413c7b9a80",
          "blockNumber": "0xb877f6",
          "transactionHash": "0x4c0e920d65d13dc1cbb05a6140ce1c2b28a2859a97bde198d9775a05b24914bd",
          "transactionIndex": "0x4",
          "logIndex": "0x4",
          "removed": false
        }
      ],
      "logsBloom": "0x00000000000000000000000000000000000000000400000000000000080000201000000000000000000000000000000000000000041000000020000000100000000000000000000000000008000000000000001000000020004000000000000000000000000000200000000000004000000000080000000000000010000000000000000000004001000000000008000000000000000000000000000000001000001000000000000000010000000000000000000000000020000000000000000000000002000000000000000000000000000000000000000000000040000000008000000000000000004000000000000000000000000002000000000000002010",
      "type": "0x2",
      "transactionHash": "0x4c0e920d65d13dc1cbb05a6140ce1c2b28a2859a97bde198d9775a05b24914bd",
      "transactionIndex": "0x4",
      "blockHash": "0xa5029681c74a009d9e99117a0621d83866e36f01764966d02d41c5413c7b9a80",
      "blockNumber": "0xb877f6",
      "gasUsed": "0x20b8f",
      "effectiveGasPrice": "0xf433e",
      "from": "0x7a40fa7b42c04f2d9763475b36afa5e0140c37bf",
      "to": "0x9140a78c1a137c7ff1c151ec8231272af78a99a4",
      "contractAddress": null,
      "l1BaseFeeScalar": "0x7d0",
      "l1BlobBaseFee": "0x1",
      "l1BlobBaseFeeScalar": "0xdbba0",
      "l1Fee": "0x2da1dbda0b",
      "l1GasPrice": "0x8dfe6eee8",
      "l1GasUsed": "0xa0a"
    }
  ],
  "libraries": [],
  "pending": [],
  "returns": {},
  "timestamp": 1738941764,
  "chain": 1301,
  "commit": "0b1dbf6"
}