{
  "transactions": [
    {
      "hash": "0x919f9ad705ee442e3e1a74804e8e62d5cae18b2e82567ea27695c7176477ee5a",
      "transactionType": "CALL",
      "contractName": null,
      "contractAddress": "0xa5dfc0fee856d42cd67c97ef1fa08497547f4419",
      "function": "approve(address,uint256)",
      "arguments": [
        "0x9140a78c1A137c7fF1c151EC8231272aF78a99A4",
        "115792089237316195423570985008687907853269984665640564039457584007913129639935"
      ],
      "transaction": {
        "from": "0x7a40fa7b42c04f2d9763475b36afa5e0140c37bf",
        "to": "0xa5dfc0fee856d42cd67c97ef1fa08497547f4419",
        "gas": "0x9382",
        "value": "0x0",
        "input": "0x095ea7b30000000000000000000000009140a78c1a137c7ff1c151ec8231272af78a99a4ffffffffffffffffffffffffffffffffffffffffffffffffffffffffffffffff",
        "nonce": "0x1c",
        "chainId": "0x515"
      },
      "additionalContracts": [],
      "isFixedGasLimit": false
    },
    {
      "hash": "0xf5cb79d326b08cf7c890ea2c8b228bef2c2e4b42a9ebc9022231608bbd79d2d3",
      "transactionType": "CALL",
      "contractName": null,
      "contractAddress": "0x9140a78c1a137c7ff1c151ec8231272af78a99a4",
      "function": "swap((address,address,uint24,int24,address),(bool,int256,uint160),(bool,bool),bytes)",
      "arguments": [
        "(0x0000000000000000000000000000000000000000, 0xa5dfC0feE856D42Cd67c97eF1fa08497547f4419, 3000, 60, 0xF3445C02e84E3Af05b0F37D092c6e19D680B4040)",
        "(true, 100000000000000000000000, 4295128740)",
        "(false, false)",
        "0x3a29"
      ],
      "transaction": {
        "from": "0x7a40fa7b42c04f2d9763475b36afa5e0140c37bf",
        "to": "0x9140a78c1a137c7ff1c151ec8231272af78a99a4",
        "gas": "0x2d3cf",
        "value": "0x38d7ea4c68000",
        "input": "0x2229d0b40000000000000000000000000000000000000000000000000000000000000000000000000000000000000000a5dfc0fee856d42cd67c97ef1fa08497547f44190000000000000000000000000000000000000000000000000000000000000bb8000000000000000000000000000000000000000000000000000000000000003c000000000000000000000000f3445c02e84e3af05b0f37d092c6e19d680b4040000000000000000000000000000000000000000000000000000000000000000100000000000000000000000000000000000000000000152d02c7e14af680000000000000000000000000000000000000000000000000000000000001000276a400000000000000000000000000000000000000000000000000000000000000000000000000000000000000000000000000000000000000000000000000000000000000000000000000000000000000000000000000000000000000000000016000000000000000000000000000000000000000000000000000000000000000023a29000000000000000000000000000000000000000000000000000000000000",
        "nonce": "0x1d",
        "chainId": "0x515"
      },
      "additionalContracts": [],
      "isFixedGasLimit": false
    }
  ],
  "receipts": [
    {
      "status": "0x1",
      "cumulativeGasUsed": "0x3b456",
      "logs": [
        {
          "address": "0xa5dfc0fee856d42cd67c97ef1fa08497547f4419",
          "topics": [
            "0x8c5be1e5ebec7d5bd14f71427d1e84f3dd0314c0f7b2291e5b200ac8c7c3b925",
            "0x0000000000000000000000007a40fa7b42c04f2d9763475b36afa5e0140c37bf",
            "0x0000000000000000000000009140a78c1a137c7ff1c151ec8231272af78a99a4"
          ],
          "data": "0xffffffffffffffffffffffffffffffffffffffffffffffffffffffffffffffff",
          "blockHash": "0xb7741f31b4a37e6c80ab7ac6cb0d89dc3c4c918c796896d7cc5330943b4b5717",
          "blockNumber": "0xb87c4b",
          "transactionHash": "0x919f9ad705ee442e3e1a74804e8e62d5cae18b2e82567ea27695c7176477ee5a",
          "transactionIndex": "0x3",
          "logIndex": "0x3",
          "removed": false
        }
      ],
      "logsBloom": "0x00000000000000000000000000000000000000000000000000000000080000001000000000000000000000000000000000000000000000000020000000200000000000000000000000000000000000000000001000000000004000000000000000000000000000000000000000000000000000000000000000000000000000000000000000000001000000000000000000000000000000000000000000001000020000000000000000010000000000000000000000000000000000000000000000000000000000000000000000000000000000000000000000000040000000000010000000000000000000000000000000000000000000000000000000000000",
      "type": "0x2",
      "transactionHash": "0x919f9ad705ee442e3e1a74804e8e62d5cae18b2e82567ea27695c7176477ee5a",
      "transactionIndex": "0x3",
      "blockHash": "0xb7741f31b4a37e6c80ab7ac6cb0d89dc3c4c918c796896d7cc5330943b4b5717",
      "blockNumber": "0xb87c4b",
      "gasUsed": "0x6acc",
      "effectiveGasPrice": "0xf6a53",
      "from": "0x7a40fa7b42c04f2d9763475b36afa5e0140c37bf",
      "to": "0xa5dfc0fee856d42cd67c97ef1fa08497547f4419",
      "contractAddress": null,
      "l1BaseFeeScalar": "0x7d0",
      "l1BlobBaseFee": "0x1",
      "l1BlobBaseFeeScalar": "0xdbba0",
      "l1Fee": "0x1cdd23045d",
      "l1GasPrice": "0x9051af141",
      "l1GasUsed": "0x640"
    },
    {
      "status": "0x1",
      "cumulativeGasUsed": "0x5ba37",
      "logs": [
        {
          "address": "0x00b036b58a818b1bc34d502d3fe730db729e62ac",
          "topics": [
            "0x40e9cecb9f5f1f1c5b9c97dec2917b7ee92e57ba5563708daca94dd84ad7112f",
            "0xcda6fb5986c23bfee65c93772201538106099bfa269006960f0ca60c31ef474f",
            "0x0000000000000000000000009140a78c1a137c7ff1c151ec8231272af78a99a4"
          ],
          "data": "0xffffffffffffffffffffffffffffffffffffffffffffffffffffa4c47e91203400000000000000000000000000000000000000000000152d02c7e14af68000000000000000000000000000000000000000007b83953d74484047289901f799b20000000000000000000000000000000000000000000006b245bf9c2c8dce6bc200000000000000000000000000000000000000000000000000000000000329880000000000000000000000000000000000000000000000000000000000000bb8",
          "blockHash": "0x872d9a84a3c7ad9bfc061fc3f9606c5beb746805ea67f92e1beda771316bda87",
          "blockNumber": "0xb87c4c",
          "transactionHash": "0xf5cb79d326b08cf7c890ea2c8b228bef2c2e4b42a9ebc9022231608bbd79d2d3",
          "transactionIndex": "0x3",
          "logIndex": "0x0",
          "removed": false
        },
        {
          "address": "0xf3445c02e84e3af05b0f37d092c6e19d680b4040",
          "topics": [
            "0x20402db41a2f878968c7a90dc304117fe6c9cdcd4fed57d171672597e1bf6a85",
            "0xcda6fb5986c23bfee65c93772201538106099bfa269006960f0ca60c31ef474f",
            "0x0000000000000000000000007a40fa7b42c04f2d9763475b36afa5e0140c37bf"
          ],
          "data": "0xffffffffffffffffffffffffffffffffffffffffffffffffffffa4c47e91203400000000000000000000000000000000000000000000152d02c7e14af680000000000000000000000000000000000000000000000000000000000001000276a4000000000000000000000000000000000000000000000000000000000000008000000000000000000000000000000000000000000000000000000000000000023a29000000000000000000000000000000000000000000000000000000000000",
          "blockHash": "0x872d9a84a3c7ad9bfc061fc3f9606c5beb746805ea67f92e1beda771316bda87",
          "blockNumber": "0xb87c4c",
          "transactionHash": "0xf5cb79d326b08cf7c890ea2c8b228bef2c2e4b42a9ebc9022231608bbd79d2d3",
          "transactionIndex": "0x3",
          "logIndex": "0x1",
          "removed": false
        },
        {
          "address": "0xa5dfc0fee856d42cd67c97ef1fa08497547f4419",
          "topics": [
            "0xddf252ad1be2c89b69c2b068fc378daa952ba7f163c4a11628f55a4df523b3ef",
            "0x00000000000000000000000000b036b58a818b1bc34d502d3fe730db729e62ac",
            "0x0000000000000000000000007a40fa7b42c04f2d9763475b36afa5e0140c37bf"
          ],
          "data": "0x00000000000000000000000000000000000000000000152d02c7e14af6800000",
          "blockHash": "0x872d9a84a3c7ad9bfc061fc3f9606c5beb746805ea67f92e1beda771316bda87",
          "blockNumber": "0xb87c4c",
          "transactionHash": "0xf5cb79d326b08cf7c890ea2c8b228bef2c2e4b42a9ebc9022231608bbd79d2d3",
          "transactionIndex": "0x3",
          "logIndex": "0x2",
          "removed": false
        }
      ],
      "logsBloom": "0x00000000000000000000000000000000000000000000000000000000180000201000000000000000000000000000000000000000041000000020000000000000000000000000000000000008000000000000001000000060004000000000000000000000000000000000000000004000000000000000000000000010000000000000000000000001000000000008000000000000000000000800000000001000001000000000000000010000000000000000000000000020000000000000000000000002000000000000000000080000000000000000000000000040000000008000000000000000004000000800000000000000000002000008000000000010",
      "type": "0x2",
      "transactionHash": "0xf5cb79d326b08cf7c890ea2c8b228bef2c2e4b42a9ebc9022231608bbd79d2d3",
      "transactionIndex": "0x3",
      "blockHash": "0x872d9a84a3c7ad9bfc061fc3f9606c5beb746805ea67f92e1beda771316bda87",
      "blockNumber": "0xb87c4c",
      "gasUsed": "0x20c07",
      "effectiveGasPrice": "0xf6a53",
      "from": "0x7a40fa7b42c04f2d9763475b36afa5e0140c37bf",
      "to": "0x9140a78c1a137c7ff1c151ec8231272af78a99a4",
      "contractAddress": null,
      "l1BaseFeeScalar": "0x7d0",
      "l1BlobBaseFee": "0x1",
      "l1BlobBaseFeeScalar": "0xdbba0",
      "l1Fee": "0x2de5886c6f",
      "l1GasPrice": "0x9051af141",
      "l1GasUsed": "0x9f0"
    }
  ],
  "libraries": [],
  "pending": [],
  "returns": {},
  "timestamp": 1738942874,
  "chain": 1301,
  "commit": "0b1dbf6"
}